:03000000020A9859
:0C0A9800787FE4F6D8FD758147020ADF84
:100B9C002057656C636F6D6520746F205426482058
:100BAC0020200020436F6E74726F6C205379737425
:100BBC00656D2120200020202020202020202020B6
:100BCC002020202020200054656D3A202020204336
:100BDC00202020202D20200048756D3A2020202038
:0C0BEC0025202020202D202000202000AB
:04000300C100C10176
:100C7600E4F508F509D293D294D2957844F608762D
:100C86002808F60876147840F608765508F60876A9
:100C960014F515751201751901751601750D01F515
:040CA6000FF50E2216
:0E0E4100D2A9758901758A06758CF8D28C22AB
:03000B00020C3BA9
:100C3B00C0E0C0D0758A06758CF80509E50970020D
:100C4B000508D39490E50894014005750E008003C8
:100C5B00750E01C3E5099420E50894034008D20002
:0B0C6B00750800750900D0D0D0E03201
:100803007B007A0079468B0A8A0B890C1209D0FD8A
:10081300E4FF120DE07FF47E01120DBD7401250C7F
:10082300F50CE4350BF50BAB0AFAA90C1209D0FD54
:100833007F01120DE07FF47E01120DBD7B007A0073
:1008430079448B0A8A0B890C1209D0FD7F02120DA1
:10085300E07FF47E01120DBD7401250CF50CE43527
:100863000BF50BAB0AFAA90C1209D0FD7F03120D8D
:10087300E07FF47E01120DBD7B007A0079428B0A82
:100883008A0B890C1209D0FD7F04120DE07FF47EE0
:1008930001120DBD7401250CF50CE4350BF50BAB02
:1008A3000AFAA90C1209D0FD7F05120DE07FF47E30
:1008B30001120DBD7B007A0079408B0A8A0B890CEB
:1008C3001209D0FD7F06120DE07FF47E01120DBDEB
:1008D3007401250CF50CE4350BF50BAB0AFAA90CE6
:1008E3001209D0FD7F07120DE07FF47E01020DBDDA
:1006CA00750A00750B00750C46E4FF120CFAAB0AAA
:1006DA00050CE50CAA0B7002050B14F9EF1209E9D7
:1006EA007F01120CFAAB0AAA0BA90CEF1209E975E1
:1006FA000A00750B00750C447F02120CFAAB0A054E
:10070A000CE50CAA0B7002050B14F9EF1209E97F2C
:10071A0003120CFAAB0AAA0BA90CEF1209E9750A23
:10072A0000750B00750C427F04120CFAAB0A050C1B
:10073A00E50CAA0B7002050B14F9EF1209E97F0503
:10074A00120CFAAB0AAA0BA90CEF1209E9750A00F6
:10075A00750B00750C407F06120CFAAB0A050CE506
:10076A000CAA0B7002050B14F9EF1209E97F0712A4
:10077A000CFAAB0AAA0BA90CEF1209E97846E6FEB5
:10078A0008E6D39463EE648094805008C3EE6480D4
:10079A0094805007784676000876147844E6FE0876
:1007AA00E6D39463EE648094805008C3EE64809428
:1007BA00805007784476000876287842E6FE08E6F4
:1007CA00D39463EE648094805008C3EE648094806E
:1007DA005007784076000876147840E6FE08E6D39B
:1007EA009463EE648094805008C3EE6480948050D1
:0907FA00077840760008765522CC
:1003BE00EE60030206C9EF24FE7003020487147078
:1003CE000302058F1470030206C3240360030206A2
:1003DE00C9050FE50FD3940450030206C9E4F50FC7
:1003EE007846E6FE08E6FF7C007D0A120A62EF24DC
:1003FE0030FB7D0C7F01120D267846E6FE08E6FFE7
:10040E007C007D0A120A62ED2430FB7D0D7F011205
:10041E000D267844E6FE08E6FF7C007D0A120A628D
:10042E00EF2430FB7D0F7F01120D267844E6FE0887
:10043E00E6FF7C007D0A120A62ED2430FB7D107F00
:10044E0001120D267842E6FE08E6FF7C007D0A12B8
:10045E000A62EF2430FB7D0C7F02120D267842E6F5
:10046E00FE08E6FF7C007D0A120A62ED2430FB7D59
:10047E000D7F02120D26020691E50F64017047C32F
:10048E007847E6946418E66480948050070806E680
:10049E00187001067846E6FE08E6FF7C007D0A121B
:1004AE000A62EF2430FB7D0C7F01120D267846E6A2
:1004BE00FE08E6FF7C007D0A120A62ED2430FB7D09
:1004CE000D7F01120D26E50F64027047C37845E6D5
:1004DE00946418E66480948050070806E61870014C
:1004EE00067844E6FE08E6FF7C007D0A120A62EFFB
:1004FE002430FB7D0F7F01120D267844E6FE08E6C0
:10050E00FF7C007D0A120A62ED2430FB7D107F0114
:10051E00120D26E50F64037047C37843E694641802
:10052E00E66480948050070806E61870010678424B
:10053E00E6FE08E6FF7C007D0A120A62EF2430FB1D
:10054E007D0C7F02120D267842E6FE08E6FF7C0047
:10055E007D0A120A62ED2430FB7D0D7F02120D26FC
:10056E00E50F640460030206C9C37841E69464187B
:10057E00E66480948050070806E6187001060206AD
:10058E0091E50F64017047D37847E6940018E6644E
:10059E00809480400708E616187001167846E6FE2D
:1005AE0008E6FF7C007D0A120A62EF2430FB7D0C08
:1005BE007F01120D267846E6FE08E6FF7C007D0AD6
:1005CE00120A62ED2430FB7D0D7F01120D26E50F20
:1005DE0064027047D37845E6940018E664809480F0
:1005EE00400708E616187001167844E6FE08E6FF86
:1005FE007C007D0A120A62EF2430FB7D0F7F011210
:10060E000D267844E6FE08E6FF7C007D0A120A629B
:10061E00ED2430FB7D107F01120D26E50F64037073
:10062E0047D37843E6940018E66480948040070828
:10063E00E616187001167842E6FE08E6FF7C007D8D
:10064E000A120A62EF2430FB7D0C7F02120D26780F
:10065E0042E6FE08E6FF7C007D0A120A62ED2430B7
:10066E00FB7D0D7F02120D26E50F6404704DD378CD
:10067E0041E6940018E664809480400708E6161858
:10068E007001167840E6FE08E6FF7C007D0A120A2D
:10069E0062EF2430FB7D0F7F02120D267840E6FEBE
:1006AE0008E6FF7C007D0A120A62ED2430FB7D1005
:0C06BE007F02020D26120803E4F50F2253
:10000E00C2AF120E41120C76D2AF120D977BFF7A51
:10001E000B799C7D017F01120CAA7BFF7A0B79AFC5
:10002E007D017F02120CAAE4FFFEE4FDFC0DBD0073
:10003E00010CBC03F8BDE8F50FBF00010EBE03EACC
:10004E00BFE8E77BFF7A0B79C27D017F01120CAA14
:10005E007BFF7A0B79C27D017F02120CAA7BFF7A9D
:10006E000B79D37D017F01120CAA7BFF7A0B79E409
:10007E007D017F02120CAA1206CA7846E6FE08E639
:10008E00FF7C007D0A120A62EF2430FB7D0C7F019B
:10009E00120D267846E6FE08E6FF7C007D0A120A5F
:1000AE0062ED2430FB7D0D7F01120D267844E6FEB5
:1000BE0008E6FF7C007D0A120A62EF2430FB7D0FFA
:1000CE007F01120D267844E6FE08E6FF7C007D0ACD
:1000DE00120A62ED2430FB7D107F01120D2678424C
:1000EE00E6FE08E6FF7C007D0A120A62EF2430FB72
:1000FE007D0C7F02120D267842E6FE08E6FF7C009C
:10010E007D0A120A62ED2430FB7D0D7F02120D2650
:10011E007840E6FE08E6FF7C007D0A120A62EF24B4
:10012E0030FB7D0F7F02120D267840E6FE08E6FFBB
:10013E007C007D0A120A62ED2430FB7D107F0212D4
:10014E000D26300030C28C120B247532008F33C254
:10015E0000D28C751700852C18751000852211ABF6
:10016E0011AA107D057F011208F3AB18AA177D05A1
:10017E007F021208F3E50E64017045E50F24FE6060
:10018E0017146020146029240360030202967BFF7B
:10019E007A0B79F57D0C80087BFF7A0B79F57D0F54
:1001AE007F0180167BFF7A0B79F57D0C7F02800A2A
:1001BE007BFF7A0B79F57D0F7F02120CAA02029655
:1001CE007846E6FE08E6FF7C007D0A120A62EF24FE
:1001DE0030FB7D0C7F01120D267846E6FE08E6FF09
:1001EE007C007D0A120A62ED2430FB7D0D7F011228
:1001FE000D267844E6FE08E6FF7C007D0A120A62B0
:10020E00EF2430FB7D0F7F01120D267844E6FE08A9
:10021E00E6FF7C007D0A120A62ED2430FB7D107F22
:10022E0001120D267842E6FE08E6FF7C007D0A12DA
:10023E000A62EF2430FB7D0C7F02120D267842E617
:10024E00FE08E6FF7C007D0A120A62ED2430FB7D7B
:10025E000D7F02120D267840E6FE08E6FF7C007D3B
:10026E000A120A62EF2430FB7D0F7F02120D2678F0
:10027E0040E6FE08E6FF7C007D0A120A62ED24309D
:10028E00FB7D107F02120D267846E6FE08E6FFC3C0
:10029E00E5119FEE6480F8E5106480985004C293D7
:1002AE008002D2937844E6FC08E6FDD3E5119DEC7E
:1002BE006480F8E5106480984004C2948002D29461
:1002CE00C3E51878439618E66480F8E517648098BD
:1002DE005004C2958002D295D3E51878419618E65F
:1002EE006480F8E5176480984004C2968002D29626
:1002FE00C3E5119FEE6480F8E5106480984033D317
:10030E00E5119DEC6480F8E5106480985024C3E5F7
:10031E001878439618E66480F8E5176480984012C2
:10032E00D3E51878419618E66480F8E5176480984E
:10033E004004C2A08002D2A030B20BE5127007D2E8
:10034E0001751501802830B30BE5167007D20175C3
:10035E001502801A30B40BE50D7007D20175150326
:10036E00800C30B509E5197005D201751504300100
:10037E0009AF157E001203BEC20120B205E4F512CC
:10038E00800375120120B305E4F51680037516017E
:10039E0020B405E4F50D8003750D0120B505E4F5D7
:1003AE001980037519017FF47E01120DBD020150F3
:100D5D00E4FFFEE4FDFC0DBD00010CED64034C70E1
:0C0D6D00F50FBF00010EEF640B4E70E7A5
:010D79002257
:010E79002256
:100DF700120E798F80C2A7C2A6C2A5120D5DD2A519
:030E0700020D5D7C
:100E0A00120E798F80D2A7C2A6C2A5120D5DD2A5F5
:030E1A00020D5D69
:100D97007F01120DF77F38120DF77F0C120DF77FC9
:090DA70006120DF77FD0020DF7D2
:050D21002430FBAF349B
:020D2600AE0716
:100D2800BE01027A80BE02027AC0EA2D14FAFF12CE
:070D38000DF7AF03020E0AE4
:100CAA00BF0103753480BF02037534C0E5342D14C7
:100CBA00F534FF120DF71209D0FF600C120E0A74F8
:080CCA000129F9E43AFA80EE79
:010CD20022FF
:0808F3008F348D358A368B37F6
:1008FB00C3E536648094804007E4F53EF53F8006FF
:10090B00753E00753F01AF37AE36120E2FAB07AAFF
:10091B00067C007D64120A0D8E3C8F3D7C007D644D
:10092B001209FBC3EB9FFBEA9EFA7D0AAF03FE1293
:10093B000A0D8E3A8F3B7C007D0A1209FBC3EB9F9D
:10094B00F539EA9EF538AF37AE36120E2F8E368F4D
:10095B0037C3E5379464E53664809480401CE53FEB
:10096B006401453E70097B2DAD35AF34120D26E584
:10097B003504FDE53D120D218020C3E537940AE5D2
:10098B003664809480401FE53F6401453E700BE563
:10099B003504FD7B2DAF34120D26E5352402FDE524
:1009AB003B120D218014E53F6401453E700CE5358B
:1009BB002402FD7B2DAF34120D26E5352403FDE516
:0409CB0039120D21AF
:0109CF002205
:03000700012100D4
:100DC900D3EF9400EE9400400DE4FD0DBD1BFCEF44
:060DD9001F70ED1E80EA10
:010DDF0022F1
:0C0E4F00153415341534153415341534E1
:010E5B002274
:100BF800E4FF752602209707AE260526EE70F6124A
:100C08000E4F120E4F120E4FE4F52B309703752B33
:100C180001752602309707AE260526EE70F6E52602
:100C28006401600EE53125E0F531E52B42310FBF57
:020C380008C0F2
:010C3A002297
:100B2400C2977FB47E00120DC9D297120E4F120ED7
:100B34004F120E4F120E4FD297209759752602204E
:100B44009707AF260526EF70F6752602309707AF94
:100B5400260526EF70F6120BF885312E120BF88558
:100B6400312F120BF8853124120BF8853125120B25
:100B7400F885312AD297E5242525252E252FF52B16
:100B8400B52A0F852E2C852F2D8524228525238596
:080B94002A287F01227F0022C4
:0D0DB0007F017E00120DBDD2907F017E00FC
:0C0DBD00EF4E6007EF1F70F81E80F5225B
:100E1D00C290120DB9D291120DB7C291120DB9C275
:020E2D00902211
:0D0E5C00C291120DB7D291120DB9C29022B1
:080E6900C291120DB7C29022E4
:080E7100D291120DB0C29022D3
:0B0CD300120D3F120CDEAF03120D3FAC
:100CDE007DFA120DB0A29130D70B1DA291ED70F7D7
:0B0CEE00120E5CD322120DB9C290C39D
:010CF90022D8
:020D3F00AD07FE
:100D4100E4FCEDA804088002C333D8FC30E70512A7
:0B0D51000E718003120E690CBC08E755
:010D5C002274
:100D7A00E4FDFCD291120DB7ED25E0FD309105435B
:0C0D8A0005018000C2900CBC08E9AF0518
:010D9600223A
:020CFA00AB0746
:100CFC00E4FDC202120E1D7FA0120CD3120E1D7F3A
:100D0C00A1120D3F120CDE120D7AAD07120E7112EC
:040D1C000E5CAF05B5
:010D200022B0
:100DE000AB05AA07120E1D7FA0120D3F120CDEAF3D
:070DF00002120CD3020E5C9D
:100AA40002000EE493A3F8E493A34003F68001F25A
:100AB40008DFF48029E493A3F85407240CC8C33353
:100AC400C4540F4420C8834004F456800146F6DF22
:100AD400E4800B0102040810204080900003E47EAF
:100AE400019360BCA3FF543F30E509541FFEE49317
:100AF400A360010ECF54C025E060A840B8E493A3DE
:100B0400FAE493A3F8E493A3C8C582C8CAC583CA08
:100B1400F0A3C8C582C8CAC583CADFE9DEE780BEC0
:01000A0000F5
:1009D000BB010689828A83E0225002E722BBFE0225
:0909E000E32289828A83E4932258
:1009E900BB010689828A83F0225002F722BBFE01ED
:0209F900F322E7
:1009FB00EF8DF0A4A8F0CF8CF0A428CE8DF0A42E10
:020A0B00FE22C9
:100A0D00BC000BBE0029EF8DF084FFADF022E4CCCD
:100A1D00F875F008EF2FFFEE33FEEC33FCEE9DEC96
:100A2D00984005FCEE9DFE0FD5F0E9E4CEFD22EDDC
:100A3D00F8F5F0EE8420D21CFEADF075F008EF2F26
:100A4D00FFED33FD4007985006D5F0F222C398FD17
:050A5D000FD5F0EA22B4
:100A6200C2D5EC30E709B2D5E4C39DFDE49CFCEEAF
:100A720030E715B2D5E4C39FFFE49EFE120A0DC310
:100A8200E49DFDE49CFC8003120A0D30D507C3E40B
:060A92009FFFE49EFE221E
:100E2F00C3EE6480948040028007C3E49FFFE49E7A
:020E3F00FE2291
:00000001FF
